:020000040000fa
:080000000001040000000000f3
:020000040000fa
:04000800fa010000f9
:020000040000fa
:04000c00fa010000f5
:020000040000fa
:04001000fa010000f1
:020000040000fa
:04001400fa010000ed
:020000040000fa
:04001800fa010000e9
:020000040000fa
:04001c00fa010000e5
:020000040000fa
:04002000fa010000e1
:020000040000fa
:04002400fa010000dd
:020000040000fa
:04002800fa010000d9
:020000040000fa
:04002c00fa010000d5
:020000040000fa
:04003000fa010000d1
:020000040000fa
:04003400fa010000cd
:020000040000fa
:04003800fa010000c9
:020000040000fa
:04003c00fa010000c5
:020000040000fa
:04004000fa010000c1
:020000040000fa
:04004400fa010000bd
:020000040000fa
:04004800fa010000b9
:020000040000fa
:04004c00fa010000b5
:020000040000fa
:04005000fa010000b1
:020000040000fa
:04005400fa010000ad
:020000040000fa
:04005800fa010000a9
:020000040000fa
:04005c00fa010000a5
:020000040000fa
:04006000fa010000a1
:020000040000fa
:04006400fa0100009d
:020000040000fa
:04006800fa01000099
:020000040000fa
:04006c00fa01000095
:020000040000fa
:04007000fa01000091
:020000040000fa
:04007400fa0100008d
:020000040000fa
:04007800fa01000089
:020000040000fa
:04007c00fa01000085
:020000040000fa
:04008000fa01000081
:020000040000fa
:04008400fa0100007d
:020000040000fa
:04008800c8010000ab
:020000040000fa
:04008c00fa01000075
:020000040000fa
:04009000fa01000071
:020000040000fa
:04009400fa0100006d
:020000040000fa
:04009800fa01000069
:020000040000fa
:04009c00fa01000065
:020000040000fa
:0400a000fa01000061
:020000040000fa
:0400a400fa0100005d
:020000040000fa
:0400a800fa01000059
:020000040000fa
:0400ac00fa01000055
:020000040000fa
:0400b000fa01000051
:020000040000fa
:0400b400fa0100004d
:020000040000fa
:0400b800fa01000049
:020000040000fa
:0400bc00fa01000045
:020000040000fa
:0400c000fa01000041
:020000040000fa
:0400c400fa0100003d
:020000040000fa
:0400c800fa01000039
:020000040000fa
:0400cc00fa01000035
:020000040000fa
:0400d000fa01000031
:020000040000fa
:0400d400fa0100002d
:020000040000fa
:0400d800fa01000029
:020000040000fa
:04010800fa010000f8
:020000040000fa
:04010c00fa010000f4
:020000040000fa
:04011000fa010000f0
:020000040000fa
:04011400fa010000ec
:020000040000fa
:04011800fa010000e8
:020000040000fa
:04011c00fa010000e4
:020000040000fa
:04012000fa010000e0
:020000040000fa
:04012400fa010000dc
:020000040000fa
:04012800fa010000d8
:020000040000fa
:04012c00fa010000d4
:020000040000fa
:04013000fa010000d0
:020000040000fa
:04013400fa010000cc
:020000040000fa
:04013800fa010000c8
:020000040000fa
:04013c00fa010000c4
:020000040000fa
:04014000fa010000c0
:020000040000fa
:04014400fa010000bc
:020000040000fa
:04014800fa010000b8
:020000040000fa
:04014c00fa010000b4
:020000040000fa
:04015000fa010000b0
:020000040000fa
:04015400fa010000ac
:020000040000fa
:04015800fa010000a8
:020000040000fa
:04015c00fa010000a4
:020000040000fa
:04016000fa010000a0
:020000040000fa
:04016400fa0100009c
:020000040000fa
:04016800fa01000098
:020000040000fa
:04016c00fa01000094
:020000040000fa
:04017000fa01000090
:020000040000fa
:04017400fa0100008c
:020000040000fa
:04017800fa01000088
:020000040000fa
:04017c00fa01000084
:020000040000fa
:04018000fa01000080
:020000040000fa
:04018400fa0100007c
:020000040000fa
:04018800c8010000aa
:020000040000fa
:04018c00fa01000074
:020000040000fa
:04019000fa01000070
:020000040000fa
:04019400fa0100006c
:020000040000fa
:04019800fa01000068
:020000040000fa
:04019c00fa01000064
:020000040000fa
:0401a000fa01000060
:020000040000fa
:0401a400fa0100005c
:020000040000fa
:0401a800fa01000058
:020000040000fa
:0401ac00fa01000054
:020000040000fa
:0401b000fa01000050
:020000040000fa
:0401b400fa0100004c
:020000040000fa
:0401b800fa01000048
:020000040000fa
:0401bc00fa01000044
:020000040000fa
:0401c000fa01000040
:020000040000fa
:0401c400fa0100003c
:020000040000fa
:0401c800fa01000038
:020000040000fa
:0401cc00fa01000034
:020000040000fa
:0401d000fa01000030
:020000040000fa
:0401d400fa0100002c
:020000040000fa
:0401d800fa01000028
:020000040000fa
:100200004f8420000eff20000e0188000000000037
:10021000000020000000e000020032000001200089
:100220002002880014000700740007000000e000ae
:1002300003003a00008c200001002000020037007b
:100240000000200001002000810f7000010032003a
:1002500014000700000020000000e000020032004f
:1002600000000200000000004c0802000000000036
:100270000040da000000fe004440a9000000200019
:100280000000e0000300320000002000a001880010
:100290004440a800000006008a1f78008b1f7800e9
:1002a0000000060091018800800478000000eb0047
:1002b0001a003700e284440032a0b4009905ba0065
:1002c000e284440032a0b4009906ba00e2844400fb
:1002d00032a0b4000006eb00476fde00fd07b2005d
:1002e000636ce10003003a00ebff07000000eb0045
:1002f0000a003700606ce10004003a00005deb008a
:100300008b05e900fdff3e00040037006168e10055
:10031000010032000086eb000b00070019c7ba008d
:100320001905ba000e04e00003003a000a00e000dc
:10033000e0ff3a0000000600fe07b2009e018800c0
:100340008a047800f5ff3700395dba008b05e900b3
:100350000c003200295dba008b05e900080032006c
:100360000c00e00003003a00e284440032a0b40034
:10037000f5ff370019ddba008b05e900faff3a00f6
:100380008904e800e184440032a0b40000000600c3
:100390003600f800809fbe00829fbe00849fbe0092
:1003a000869fbe003400f80000002000a0018800f5
:1003b0000200fa008700a900e0108000004f7800da
:1003c0009e40780000802000fb0207001e00fb001a
:1003d000d01088000080fa003400f9004f03be00fe
:1003e0004f02be004f01be004f00be003600f900b4
:1003f000004006000040da000000fe00000005009a
:10040000839f68000100e00002003d0060001000d2
:10041000e08018000300e00002003d0060011100d0
:10042000e08119003e0007004f00e00002003b00a1
:1004300060001000e0801800000006000001be000f
:10044000220007000470a70003f0a1006509b100b5
:10045000160032000d0035006828e1000600350066
:10046000f0ff2f00f1ff27000300e00013003b0026
:1004700001002800000005000000400081804800c5
:100480008502e900fcff3a0008003700f88f4200bf
:1004900002003c008000eb00000005008100d1005c
:1004a0000080d3008502e800fcff3a000300e00072
:1004b00002003b0060001000e08018000000060011
:1004c0004f89de008201780027013700c70ade006d
:1004d000f107b200f50fb20008003200e1cf420090
:1004e000020032000170a00024000500810f70009e
:1004f000010032000408050044000500810f70006f
:1005000002003a00140005008502e90000004000e6
:1005100081c04800fcff3b000170a00024000500e2
:100520006022b800060220000000d0008180d200c6
:100530000482d2008582d2000000a0000202520094
:1005400083825a00030031000202420083824a0083
:100550000000a1000603e900f3ff3a0000000600d6
:10056000038368000700280007036300470ade00d2
:100570000480a100c71ade000580a100f70f20004b
:100580000720e100420032000728e100400032006d
:10059000889fbe008a9fbe008c1f7800f107b200c2
:1005a000f307b2000400e000640032000170a00014
:1005b0000500e000680032000370a00085054200dd
:1005c000eb07b1000204b8000302b80084844400c1
:1005d00060854a00020ab800848444000a854a0003
:1005e000030ab80004054500040033000804d000e5
:1005f0008984d2000a85d2008b05e9006158e100a8
:100600003d003500021020000901610003082000b0
:1006100089816100f70720008783640008867300e2
:10062000c84cde00c853dd00878474004855de00e6
:100630000300e0000600320082037600040032006e
:100640008904e80060054d000a88a3000c003a0008
:10065000f70f20000758e10044003d000a70a10098
:10066000c75ddd000a8575008a0073000900780007
:100670004f0678004f05be004f04be000000060084
:100680000a05d1008984d3008b05e800f0ff37000c
:10069000881f7800060478009000070007027800a1
:1006a0000001fd008101fd008c0007008702780039
:1006b000850372000778a300050032000001fd00e9
:1006c0008101fd009f0007004f0478000000060034
:1006d000850372000748a30003003200f0ff2f00db
:1006e000f1ff2700f8ff37000000200001f8270085
:1006f00088807000f4ff3700880178004848dd00ea
:10070000808171004848de00c850dd0001007000a3
:10071000c850de00060478000b01780016000700c0
:1007200088807000d2ff37000500e000050032002d
:10073000170020003a0007009dff3700810370007a
:10074000f9ff3a00860078004f0678004f05be009a
:100750004f04be000000050083037100f9ff320062
:10076000270020002e00070094ff370001f8270023
:1007700086807000f4ff37000100e00026003200a0
:10078000610111007810e10023003c006022b800f4
:100790007010e1000400350080027800010078004c
:1007a0008000eb00700151000200e00009003400fd
:1007b00070031100062add00822ade008603dd00b8
:1007c000878272000200de00860bdd0007007000e9
:1007d0008208de0084817100f4ff27000482620039
:1007e000848171000400280084826200610260003c
:1007f00005f0a60000000600048271000700320028
:100800000000e800e0804800000006000002be0092
:100810006000b800efff37006000b800000006007d
:10082000889fbe000004eb006138e10016003a002a
:100830000100e00008003a00c800de004800dd00ca
:10084000880020000100e00003003a00c800de003c
:100850004800dd00680444008184cf00e98454002e
:10086000060034008908dd00f08314008703de00f1
:10087000878070000900dd00090444006102140053
:100880004f04be00000006000300e00008003a002c
:10089000c811de004811dd00880020000300e000e0
:1008a00003003a00c811de004811dd00680444006e
:1008b0008384cf00e9845400060034008919dd00e8
:1008c000f08314008713de00878171000911dd00b9
:1008d00009044400e1021400e9ff3700270020006a
:1008e00001f0a70017002000470bde00f60fb20052
:1008f000040032000643e8000a0032004702b30059
:100900000000060001037800f607b200060370003d
:1009100002003a000703b300000006008702b3009c
:100920000000060001037800f607b200060370001d
:10093000020032000770a000000006000760a0005f
:10094000000006000478a300040032000578a3002c
:10095000030032000168a30001003a000200be005b
:100960000160a00000000600881f780003047800e2
:100970000300e00007003d0060001000e080180068
:1009800060011900e081190002003b0001f02d0018
:10099000030037000400070008f0a70001f0a000e2
:1009a0004f04780000000600889fbe008a9fbe00aa
:1009b000008270000402710004827100260032007f
:1009c0000004be000200be006011b8006b092000e8
:1009d000950220000182cf000a0039000541b100d4
:1009e0000082cf00070039000541b1000982cf0025
:1009f000040039000541b1000882cf000100390030
:100a00000541b10005425200120032000a003b00cd
:100a100082817100610164008100d1000080d300f7
:100a20008984d3000884d3008b05e8000442e800e1
:100a3000f7ff3a00070037000804440089844c009f
:100a400000004800818048008b05e9000442e9006d
:100a5000f9ff3a00030007004f05be004f04be0037
:100a60000000060081002000618055000b003d0061
:100a70000b00200061fe2f000100e1001d0034008a
:100a800082817100610164008904d1000884d3006f
:100a90000000e800faff3a007100200061006400e5
:100aa000030070000200600009003200610444008d
:100ab000e0844c000988a500050032008b05e800a1
:100ac0006808e10002003a008904d1000884d300dc
:100ad000f20f20000258e10005003d00c75ddd0077
:100ae000f907b20089807500080078000000060050
:0c0af0000bf827008b00780000000500c8
:020000040000fa
:100afc000000fa0071002000200020008c0007008c
:100b0c000080fa00000006000c00fa004007980074
:100b1c00510798005e009000cf80de0065fe070054
:100b2c0062662600634e24008afe070040fe070022
:100b3c00200798003107980010002000100798003b
:100b4c002e019000be019000f0ff2f00010020004c
:100b5c00800f5100818f590005003c0010002000cf
:100b6c00000f78000000eb001007980023003700fe
:100b7c002e019000be019000f0ff2f0071002000ac
:100b8c00800f5100818f590005003c00800020002f
:100b9c00000f780010002000100798001700370095
:100bac002e019000be019000f0ff2f00f1032000f9
:100bbc00800f5100818f590005003c00000420007b
:100bcc00000f780020002000100798000b00370061
:100bdc002e019000be019000f0ff2f00f10f2000bd
:100bec00800f5100818f590004003c000010200040
:100bfc00000f780030002000100798004e00900085
:100c0c00e10f500017003a0005e1a9000021ef00a8
:100c1c001e00900000407800634060000080fb00e4
:100c2c00630060004400dd0022088000f1fc2f000e
:100c3c008100610001007000200888001e0078000f
:100c4c00cf80de000001be002e009000be009000a0
:100c5c00e8fd0700000078001008880005e1a800f6
:100c6c00190037004e009000e20f500016003a00b9
:100c7c0005e1a9000621ef001e009000004078005d
:100c8c00634060000080fb00630060004400dd00f6
:100c9c0082088000f1fc2f008100610001007000cf
:100cac00800888001e007800cf80de000001be00a6
:100cbc002e009000be009000cefd070000007800d2
:100ccc006008880011e1a8000080fa00000006000e
:100cdc000200fa00000f78001e007800e10f5000af
:100cec0007003a000000000020048000680060004b
:100cfc000000e000fcff32008460a9000a0037000d
:100d0c001e007800e20f500007003a0000000000bf
:100d1c002104800000042000008060000000e0003e
:100d2c00fbff320084c0a9000080fa00000006001e
:100d3c000400fa00000f7800110798009e00900044
:100d4c001e00780070ff07001e007800e0ff07000f
:100d5c000080fa00000006000000fa0022a2a800a1
:100d6c002342a900101180003000b300101188003c
:100d7c001111800030fe2f00008060008001b30054
:100d8c001011880021e2a8000080fa000000060083
:100d9c000200fa00000f7800000000000011800033
:100dac00620060000000e000fcff3a000108200037
:100dbc001e804000201188000080fa000000060010
:100dcc000200fa00000f7800000000000011800003
:100ddc00620060000000e000fcff3a009e0078001a
:100dec00f0002800008060000000e00004003d00de
:100dfc000000e90001ff2f00008070000000e800f7
:100e0c00000cb000201188000080fa0000000600e1
:100e1c000600fa0010079800210798001e009000a9
:100e2c00ef0f5000030034001e009000e4ff070099
:100e3c00020037001e009000d5ff07000000eb00f9
:100e4c00000f78000c00370000000000001180003b
:100e5c00620060000000e000fcff3a001e00780019
:100e6c00ae00900000804000104078000000fb00b5
:100e7c00201188001e0fe8001e007800ae009000c4
:100e8c0000804000104078000004e000eeff3a00c3
:100e9c000080fa00000006000a00fa00889fbe00dd
:100eac0030079800410798000f0478000f00780075
:100ebc00800478004e0090008000e9001107980033
:100ecc000000e8000000e8000000d10080004000b5
:100edc000f007800818747000000e8000000d10077
:100eec0000004000200798000000eb00000f780085
:100efc00050037002e0090001e00400001c2b30018
:100f0c00014878001e0fe8004e0090009e0078000b
:100f1c00808f5000f7ff35002e0090008000780085
:100f2c003e009000baff0700890778008807780018
:100f3c004f04be000080fa00000006000000fa001a
:100f4c00b0002000f010880017e2a8001942a80099
:100f5c008f00a8000080fa00000006000400fa00d0
:100f6c00100798000000eb00000f78000700370016
:100f7c001e0078009e009000008040001040780019
:100f8c000000fb00d01088001e0fe8001e00780047
:100f9c009e00900000804000104078000004e000ab
:100fac00f3ff3a000080fa00000006000400fa008b
:100fbc00000f7800214798001e0078000020900058
:100fcc009e0078002e419000827078001e00780000
:100fdc00002090008000e8001e007800012098009e
:100fec001e0078008020900000042000808f5000ac
:100ffc0003003a001e0078008000eb0001209800ee
:10100c000080fa00000006000400fa00000f7800cf
:10101c00110798001e007800802090001e007800b8
:10102c0010209000808f500002003a000000eb006e
:10103c00140037001e007800102090009e007800ed
:10104c00e14078001e009000014878001e007800f6
:10105c00102090008000e8001e00780011209800fd
:10106c001e0078009020900000042000808f50001b
:10107c0003003a001e0078008000eb00112098005d
:10108c00100020000080fa00000006002600fa0084
:10109c0031ff0700a9ff0700813e2000100020004f
:1010ac0023ff07004028ef004228ef000000eb0070
:1010bc00000f78000000eb001007980003003700c9
:1010cc0000000000010037000000000088fe07004f
:1010dc00660047008000780000802000caff0700ef
:1010ec00200798002e009000e10f5000f4ff3a000a
:1010fc0066004700800078001e00780044ff07005f
:10110c001e0fe8001e0090000000e8001007980079
:10111c009e007800f0002800008060000000e000d5
:10112c0004003d000000e90001ff2f00008070006a
:10113c000000e800000f780066004700ed0f50003b
:10114c000600320066004700ea0f50000300320030
:10115c001e0078000000e000dbff3a0001012000d7
:10116c000000eb004cff07000000eb00100798009c
:04117c00d6ff370063
:020000040000fa
:101180000008000044000000000000000000000013
:020000040000fa
:0200000401f009
:04000000f4bf000049
:020000040000fa
:0200000401f009
:04000400ff7f00007a
:020000040000fa
:0200000401f009
:04000800ffff0000f6
:020000040000fa
:0200000401f009
:04001400ffffff00eb
:020000040000fa
:0200000401f009
:04001800ffff0000e6
:00000001FF
