:020000040000fa
:080000000001040000000000f3
:020000040000fa
:04000800860200006c
:020000040000fa
:04000c008602000068
:020000040000fa
:040010008602000064
:020000040000fa
:040014008602000060
:020000040000fa
:04001800860200005c
:020000040000fa
:04001c008602000058
:020000040000fa
:040020008602000054
:020000040000fa
:040024008602000050
:020000040000fa
:04002800f6010000dd
:020000040000fa
:04002c008602000048
:020000040000fa
:040030008602000044
:020000040000fa
:040034008602000040
:020000040000fa
:04003800860200003c
:020000040000fa
:04003c008602000038
:020000040000fa
:040040008602000034
:020000040000fa
:040044003602000080
:020000040000fa
:04004800860200002c
:020000040000fa
:04004c008602000028
:020000040000fa
:040050008602000024
:020000040000fa
:040054008602000020
:020000040000fa
:04005800860200001c
:020000040000fa
:04005c008602000018
:020000040000fa
:040060008602000014
:020000040000fa
:040064008602000010
:020000040000fa
:04006800540200003e
:020000040000fa
:04006c008602000008
:020000040000fa
:040070008602000004
:020000040000fa
:040074008602000000
:020000040000fa
:0400780086020000fc
:020000040000fa
:04007c0086020000f8
:020000040000fa
:0400800086020000f4
:020000040000fa
:0400840086020000f0
:020000040000fa
:04008800c8010000ab
:020000040000fa
:04008c0086020000e8
:020000040000fa
:0400900086020000e4
:020000040000fa
:0400940086020000e0
:020000040000fa
:0400980086020000dc
:020000040000fa
:04009c0086020000d8
:020000040000fa
:0400a00086020000d4
:020000040000fa
:0400a40086020000d0
:020000040000fa
:0400a80086020000cc
:020000040000fa
:0400ac0086020000c8
:020000040000fa
:0400b00086020000c4
:020000040000fa
:0400b40086020000c0
:020000040000fa
:0400b80086020000bc
:020000040000fa
:0400bc0086020000b8
:020000040000fa
:0400c00086020000b4
:020000040000fa
:0400c40086020000b0
:020000040000fa
:0400c80086020000ac
:020000040000fa
:0400cc0086020000a8
:020000040000fa
:0400d00086020000a4
:020000040000fa
:0400d40086020000a0
:020000040000fa
:0400d800860200009c
:020000040000fa
:04010800860200006b
:020000040000fa
:04010c008602000067
:020000040000fa
:040110008602000063
:020000040000fa
:04011400860200005f
:020000040000fa
:04011800860200005b
:020000040000fa
:04011c008602000057
:020000040000fa
:040120008602000053
:020000040000fa
:04012400860200004f
:020000040000fa
:04012800f6010000dc
:020000040000fa
:04012c008602000047
:020000040000fa
:040130008602000043
:020000040000fa
:04013400860200003f
:020000040000fa
:04013800860200003b
:020000040000fa
:04013c008602000037
:020000040000fa
:040140008602000033
:020000040000fa
:04014400360200007f
:020000040000fa
:04014800860200002b
:020000040000fa
:04014c008602000027
:020000040000fa
:040150008602000023
:020000040000fa
:04015400860200001f
:020000040000fa
:04015800860200001b
:020000040000fa
:04015c008602000017
:020000040000fa
:040160008602000013
:020000040000fa
:04016400860200000f
:020000040000fa
:04016800540200003d
:020000040000fa
:04016c008602000007
:020000040000fa
:040170008602000003
:020000040000fa
:0401740086020000ff
:020000040000fa
:0401780086020000fb
:020000040000fa
:04017c0086020000f7
:020000040000fa
:0401800086020000f3
:020000040000fa
:0401840086020000ef
:020000040000fa
:04018800c8010000aa
:020000040000fa
:04018c0086020000e7
:020000040000fa
:0401900086020000e3
:020000040000fa
:0401940086020000df
:020000040000fa
:0401980086020000db
:020000040000fa
:04019c0086020000d7
:020000040000fa
:0401a00086020000d3
:020000040000fa
:0401a40086020000cf
:020000040000fa
:0401a80086020000cb
:020000040000fa
:0401ac0086020000c7
:020000040000fa
:0401b00086020000c3
:020000040000fa
:0401b40086020000bf
:020000040000fa
:0401b80086020000bb
:020000040000fa
:0401bc0086020000b7
:020000040000fa
:0401c00086020000b3
:020000040000fa
:0401c40086020000af
:020000040000fa
:0401c80086020000ab
:020000040000fa
:0401cc0086020000a7
:020000040000fa
:0401d00086020000a3
:020000040000fa
:0401d400860200009f
:020000040000fa
:0401d800860200009b
:020000040000fa
:10020000cf8320000eff20000e01880000000000b8
:10021000000020000000e000020032000001200089
:100220002002880014000700ba0007000000e00068
:1002300003003a0040742100010020000200370052
:100240000000200001002000810f7000010032003a
:1002500014000700000020000000e000020032004f
:10026000000002000000000058160200000000001c
:100270000040da000000fe004440a90020022000f7
:100280000000e0000300320000002000a001880010
:100290004440a800000006008a1f78008b1f7800e9
:1002a0000000060091018800800478000000eb0047
:1002b0001a003700e284440032a0b4009905ba0065
:1002c000e284440032a0b4009906ba00e2844400fb
:1002d00032a0b4000006eb00476fde00fd07b2005d
:1002e000636ce10003003a00ebff07000000eb0045
:1002f0000a003700606ce10004003a00005deb008a
:100300008b05e900fdff3e00040037006168e10055
:10031000010032000086eb000b00070019c7ba008d
:100320001905ba000e04e00003003a000a00e000dc
:10033000e0ff3a0000000600fe07b2009e018800c0
:100340008a047800f5ff3700395dba008b05e900b3
:100350000c003200295dba008b05e900080032006c
:100360000c00e00003003a00e284440032a0b40034
:10037000f5ff370019ddba008b05e900faff3a00f6
:100380008904e800e184440032a0b40000000600c3
:100390003600f800809fbe00829fbe00849fbe0092
:1003a000869fbe003400f80000002000a0018800f5
:1003b0000200fa008700a900e0108000004f7800da
:1003c0009e40780000802000fe0907000080fa00af
:1003d0003400f9004f03be004f02be004f01be00c3
:1003e0004f00be003600f900004006003600f8005d
:1003f000809fbe00829fbe00849fbe00869fbe007d
:100400003400f80000002000a00188000000fa007d
:100410008400a9008c00a900a0408000801f780003
:10042000e0342900801f780060812000f901070076
:10043000e487570060812000ce090700e101200019
:1004400030002000ac0807008ce0a8000080fa0013
:100450003400f9004f03be004f02be004f01be0042
:100460004f00be003600f900004006003400f800de
:10047000881f780008002000a80188004f04780039
:100480000000fa0084e0a9008400a90013e1a9009b
:100490000a21ef008ce0a9008c00a8000080fa007f
:1004a0003400f900004006003600f800809fbe00ce
:1004b000829fbe00849fbe00869fbe003400f8006d
:1004c00000002000a00188000000fa008600a900ba
:1004d0008e00a900010120000000eb007209070056
:1004e0001428ef001a28ef008600a8000080fa0008
:1004f0003400f9004f03be004f02be004f01be00a2
:100500004f00be003600f900004006000040da004f
:100510000000fe0000000500839f68000100e0006d
:1005200002003d0060001000e08018000300e000c1
:1005300002003d0060011100e08119003e0007004b
:100540004f00e00002003b0060001000e080180057
:10055000000006000001be00220007000470a70092
:1005600003f0a1006509b100160032000d0035004e
:100570006828e10006003500f0ff2f00f1ff27009a
:100580000300e00013003b0001002800000005000c
:1005900000004000818048008502e900fcff3a002d
:1005a00008003700f88f420002003c008000eb009a
:1005b000000005008100d1000080d3008502e80022
:1005c000fcff3a000300e00002003b006000100066
:1005d000e0801800000006004f89de0082017800ec
:1005e00027013700c70ade00f107b200f50fb2009d
:1005f00008003200e1cf4200020032000170a0008a
:1006000024000500810f700001003200040805007d
:1006100044000500810f700002003a00140005003c
:100620008502e9000000400081c04800fcff3b005b
:100630000170a000240005006022b800060220001e
:100640000000d0008180d2000482d2008582d200d6
:100650000000a0000202520083825a000300310011
:100660000202420083824a000000a1000603e90062
:10067000f3ff3a000000060003836800070028002b
:1006800007036300470ade000480a100c71ade00ea
:100690000580a100f70f20000720e1004200320092
:1006a0000728e10040003200889fbe008a9fbe00fc
:1006b0008c1f7800f107b200f307b2000400e000dd
:1006c000640032000170a0000500e0006800320004
:1006d0000370a00085054200eb07b1000204b800da
:1006e0000302b8008484440060854a00020ab8000e
:1006f000848444000a854a00030ab80004054500c2
:10070000040033000804d0008984d2000a85d20096
:100710008b05e9006158e1003d0035000210200022
:10072000090161000308200089816100f7072000aa
:100730008783640008867300c84cde00c853dd0060
:10074000878474004855de000300e0000600320094
:1007500082037600040032008904e80060054d0041
:100760000a88a3000c003a00f70f20000758e100a8
:1007700044003d000a70a100c75ddd000a857500d8
:100780008a007300090078004f0678004f05be000c
:100790004f04be00000006000a05d1008984d30082
:1007a0008b05e800f0ff3700881f7800060478000a
:1007b00090000700070278000001fd008101fd00a4
:1007c0008c00070087027800850372000778a30079
:1007d000050032000001fd008101fd009f000700bf
:1007e0004f04780000000600850372000748a3004c
:1007f00003003200f0ff2f00f1ff2700f8ff370061
:100800000000200001f8270088807000f4ff370006
:10081000880178004848dd00808171004848de008a
:10082000c850dd0001007000c850de0006047800ea
:100830000b0178001600070088807000d2ff370097
:100840000500e00005003200170020003a00070014
:100850009dff370081037000f9ff3a0086007800a1
:100860004f0678004f05be004f04be000000050093
:1008700083037100f9ff3200270020002e000700db
:1008800094ff370001f8270086807000f4ff3700de
:100890000100e00026003200610111007810e10043
:1008a00023003c006022b8007010e1000400350015
:1008b00080027800010078008000eb007001510098
:1008c0000200e0000900340070031100062add0078
:1008d000822ade008603dd00878272000200de00cd
:1008e000860bdd00070070008208de008481710045
:1008f000f4ff270004826200848171000400280054
:10090000848262006102600005f0a600000006001b
:1009100004827100070032000000e800e080480017
:10092000000006000002be006000b800efff3700c4
:100930006000b80000000600889fbe000004eb00c5
:100940006138e10016003a000100e00008003a00ba
:10095000c800de004800dd00880020000100e00043
:1009600003003a00c800de004800dd0068044400cf
:100970008184cf00e9845400060034008908dd003a
:10098000f08314008703de00878070000900dd001b
:1009900009044400610214004f04be000000060078
:1009a0000300e00008003a00c811de004811dd0035
:1009b000880020000300e00003003a00c811de00b8
:1009c0004811dd00680444008384cf00e9845400aa
:1009d000060034008919dd00f08314008713de005f
:1009e000878171000911dd0009044400e10214004f
:1009f000e9ff37002700200001f0a70017002000c2
:100a0000470bde00f60fb200040032000643e80098
:100a10000a0032004702b30000000600010378001c
:100a2000f607b2000603700002003a000703b300a5
:100a3000000006008702b3000000060001037800f2
:100a4000f607b20006037000020032000770a00033
:100a5000000006000760a000000006000478a30064
:100a6000040032000578a300030032000168a300ef
:100a700001003a000200be000160a0000000060074
:100a8000881f7800030478000300e00007003d00a1
:100a900060001000e080180060011900e08119007a
:100aa00002003b0001f02d000300370004000700a6
:100ab00008f0a70001f0a0004f0478000000060035
:100ac000889fbe008a9fbe000082700004027100f1
:100ad00004827100260032000004be000200be0045
:100ae0006011b8006b092000950220000182cf0040
:100af0000a0039000541b1000082cf00070039002b
:100b00000541b1000982cf00040039000541b10060
:100b10000882cf00010039000541b10005425200b2
:100b2000120032000a003b00828171006101640002
:100b30008100d1000080d3008984d3000884d300d1
:100b40008b05e8000442e800f7ff3a000700370091
:100b50000804440089844c0000004800818048005b
:100b60008b05e9000442e900f9ff3a0003000700a1
:100b70004f05be004f04be000000060081002000ab
:100b8000618055000b003d000b00200061fe2f002e
:100b90000100e1001d0034008281710061016400e8
:100ba0008904d1000884d3000000e800faff3a006d
:100bb000710020006100640003007000020060000a
:100bc0000900320061044400e0844c000988a5005b
:100bd000050032008b05e8006808e10002003a00d9
:100be0008904d1000884d300f20f20000258e100ec
:100bf00005003d00c75ddd00f907b2008980750082
:100c000008007800000006000bf827008b00780031
:100c1000000005000000fa0068815700cfb8970077
:100c2000e20107000080fa0000000600060007004d
:100c30005e0007000f010700370107009000070062
:100c400032020700dd013700ec874700889fbe00b5
:100c50008a9fbe008c9fbe008e1f78000006780021
:100c60000104780018079000280590009806780085
:100c7000cdb79f00b80590003202be002203be002f
:100c80000400be000601be004f18de006011b8006f
:100c90008000eb00d0b79f00e1b79f00f2b79f0044
:100ca00083bf9f00800478000900e0000600320046
:100cb0006000b8006011b80004025000858258003e
:100cc00006035900878359000e00e000020035003a
:100cd0000d10a100cdb79f000900e00005003a000b
:100ce0004fb097000028a30002003a000038a3008c
:100cf000020032008a00e900010037008a00780013
:100d0000f8815700a2002000080078008600070044
:100d10000900e00003003a00cfb097000128a300cb
:100d2000080032000000e90000814500b1c2b300b4
:100d30000900e00001003200d1c2b300014978008f
:100d4000050037000138a300030032000000e9006d
:100d500001c2b30081757800480190000201e900ea
:100d600000015100808045004fb297008a01780051
:100d70000c007800300207009c0090000188a3005e
:100d80000400320098009000810f500001003d00e7
:100d9000010078004f0778004f06be004f05be00e7
:100da0004f04be00cf00b100000006000200fa00b0
:100db000889fbe008a9fbe008005780001047800ed
:100dc0000200780018019000280590009800780033
:100dd000b1bf9f00b80490000200e000020035009f
:100de0000110a100b1bf9f00ea81570082002000de
:100df0008a0078003002be002003be0008007800a0
:100e0000490007003fb99700f0006100030032007d
:100e10000000e90001c3b300817478003fb9970076
:100e2000e8006100030032000000e90001c2b300e5
:100e300081747800480190000201e900000151002e
:100e4000808044003fba97008a0178000b00780048
:100e5000f90107009b0090000188a3000400320004
:100e600098009000810f500001003d0001007800c3
:100e70004f05be004f04be000080fa0000000600cf
:100e8000ea874700889fbe008a9fbe008e1f7800b9
:100e900000047800030078007287570084e226007f
:100ea00055c72600049fbe00c3962200030f78009a
:100eb0006c875700004feb0011059000a1049000d3
:100ec000910578000200e00002003200020778007d
:100ed00001003700728757000000e00002003a006e
:100ee0000e0078004e0407000a00e0000300350001
:100ef0008a0f5000010036000a0078000b027800cb
:100f000089017800000178008e00780008007800e0
:100f1000c90107004f0778004f05be004f04be000f
:100f2000af00b10000000600f4874700889fbe00b4
:100f30008a9fbe008c9fbe008e1f78000605be00f3
:100f40000404be0081bf9f0082b79f00f3b79f00db
:100f5000b0009000e1b79f001301780092b79f00a6
:100f600090069000400090000000e9000006780024
:100f70000d00e00001003d001d0020008040eb005e
:100f8000efb19700817178001e0020001f0037002c
:100f90000c06e9000fb09700cf80de006109b900b0
:100fa000a0b79f00b1b79f00c2b79f00d3b79f0003
:100fb0000203be000002be000800be000a01be001f
:100fc00054050700000778000e4078000043b00089
:100fd000efb0970080707e008d06e9000fb9970092
:100fe0000201e90082bf9f002fb29700bfb29700b5
:100ff0004fb39700dfb397000800be000a01be00a0
:101000003d0507000205be000004be000c00e00024
:101010000d003400e00f5400e08f5c00e00f5d0035
:10102000e08f5d00daff3a000d00e000d8ff3c00e1
:101030008fb997000300e000030034001fb0970051
:101040000018a300d2ff3a000e00e00002003a00b0
:10105000ffb097001140a1000c0078004f07780006
:101060004f06be004f05be004f04be004f01b10049
:10107000000006000200fa00889fbe008a9fbe00a2
:101080000005780001047800020078001801900043
:10109000a804900098007800b1bf9f00b8059000a8
:1010a0000200e000020035000110a100b1bf9f0066
:1010b000ea815700a2002000890078003002be00bb
:1010c0002003be000800780097ff07004801900049
:1010d0000201e90000015100808045003fba9700fd
:1010e000890178000a007800530107009a009000f7
:1010f0000188a3000400320098009000810f500086
:1011000001003d00010078004f05be004f04be0005
:101110000080fa0000000600fa874700889fbe00a2
:101120008a9fbe008c9fbe008e1f780080047800ce
:1011300001047800820578001801900028059000cd
:1011400018077800b80090000200e00002003500a7
:101150000e10a1000100370012002000700067008f
:10116000e0b79f00090032003b02be002b03be0027
:10117000e00f5200e08f5a00e00f5b00e08f5b0051
:10118000020032008a86e900010037008a067800f2
:10119000e8026700f5b79f00010032008d06e90004
:1011a0003b02be002b03be00e4af9f00f5af9f00e3
:1011b00086b79f0097b79f00480690000c06e9008d
:1011c0000040eb0080707e00efb297007fb2970086
:1011d0008903780081047800d8af9f00020478006a
:1011e0008bbf9f008a057800034578002a003700ee
:1011f0000c06e9006fab97006f006300e90f500029
:1012000002003c000003b000010037007005b00090
:101210000a03fb001604b100f90f53000c003e0056
:10122000000378000650a0001606b100f90f530025
:1012300007003e00b4b79f00a5b79f00c7b79f0047
:1012400096030700cfb39700afb297003fb2970065
:1012500080747e000804e9008d06e9006fa89700fd
:10126000ffa897000fb197009fb19700460020009c
:101270008301d1000281d3008180d3000080d3009c
:101280000603e900faff3a00e0af9f00f1af9f00cc
:1012900082b79f0093b79f00e10f56000f00340004
:1012a0006fa89700ffa897000fb197009fb1970014
:1012b000e00f5000e08f5800e00f5900e08f590018
:1012c000cbff3a000800e000c9ff3c000d00e00041
:1012d000020034000e18a300c5ff3a008900780010
:1012e000f4b79f00870478005fac97008a417800cc
:1012f0000b0578008fbd97000500e000100032005c
:101300003b02be002b03be00e4af9f00f5af9f0081
:1013100086b79f0097b79f00e00f5200e08f5a00fa
:10132000e00f5b00e08f5b00050032000c06e90077
:1013300083707e000c06e90000c3b30080707e005d
:10134000ffb297000500e000030032000c06e90040
:1013500000c2b30080707e00480190000201e900e5
:101360000c0151008c8040000e0278008a01780048
:1013700009007800b0000700990090000188a300e0
:101380000400320098009000810f500001003d00e1
:10139000010078004f0778004f06be004f05be00e1
:1013a0004f04be00af01b1000000060082017800ca
:1013b00001017800f1ff27003f0337008408200077
:1013c000848f50001d0032000d003c0014082000e6
:1013d000848f50002700320002003c0004082000e7
:1013e0000400370024082000848f500034003200ad
:1013f00044082000848f500043003a003600370034
:10140000040a2000848f50002700320004003c00b2
:1014100004092000848f50003b003a002800370068
:10142000020c2000828f50002f003200020f20009b
:10143000828f500034003a002b0037009380e9007f
:101440000200e00005003200810978001102fb0073
:10145000cfa2de00612bb900280037008109780097
:10146000114278000482fb008002eb006033b80078
:101470002200370013027800e40052000200e0006e
:1014800005003200810978001102be004fabde007a
:101490008603780019003700810978001102be0028
:1014a0006033b800150037009380e90081097800a7
:1014b00011027800cfa2de00612bb9000f003700c7
:1014c00093027800e8805200810978003102be0062
:1014d0002103be00090037009380e9000200e0000c
:1014e00002003200f1ff37009380e90081097800a3
:1014f000110278008002eb006033b8000498be004f
:101500000690be0010000500000005004408200001
:10151000848f50002500320008003c001408200091
:10152000848f50001400320024082000848f500063
:1015300024003200040820000c00370004092000b9
:10154000848f50001f00320004003c0084082000fb
:10155000848f500024003a000e003700040a200057
:10156000848f500011003200040c2000848f500042
:101570001d003a000d0037009380e90081097800d2
:101580009100780001087800cf91de008288be00cb
:10159000140037009380e9008109780091007800f9
:1015a00001087800824878000e0037009380e90037
:1015b000810978009100780001087800820878009d
:1015c000080037009380e9008109780091007800d5
:1015d000010878006112b900612bb9008498be003f
:1015e0008690be001000050000000500889fbe0028
:1015f000000478004800900082047800808f540036
:10160000010036008004780009017800580090003d
:10161000180207005800900009004000500498008c
:10162000c800900089845000490498000048eb00ed
:101630004f04be0000000600f2874700889fbe00ee
:101640008a9fbe008c9fbe008e1f780080047800a9
:1016500001057800020478008305780061076200c4
:1016600002003a008b0f540008003900080178008e
:101670008a00780009007800dcff07008b0f540017
:1016800002003900880578001e00370008865500e2
:101690000c017800f00f5600010036000201200016
:1016a000010220007e805700f90107008c067800b7
:1016b0000500370002012000fe8057000900780075
:1016c000caff0700f0865600ef8f5600f9ff3e0074
:1016d0004461de0000ff2f000091b90002014600c6
:1016e000fe80570009007800c0ff07000e00e000f0
:1016f00004003a00080178008a00780009007800a8
:10170000baff07000b0078004f0778004f06be00b5
:101710004f05be004f04be002f01b10000000600bf
:101720000000050000000500000005000001780031
:101730000040eb008080fb0081804000438220005d
:1017400063c278000404e00003003a0050822000e5
:1017500060c078000000060092017800934f5200ac
:1017600004003a005082200060c078000309e800bd
:10177000010037000040e800ea4f5000edff36005e
:1017800000000600f6874700889fbe008a9fbe00c3
:101790008c9fbe008e1f7800000578000104780041
:1017a00083057800040678000000eb00c0b79f00b6
:1017b0008080eb00d1b79f00e0b79f00f2b79f0099
:1017c0000008200080bf9f0098007800010078008a
:1017d0008004eb00010037008904e8003041780004
:1017e0000204e0000300320053c2b300834f5100f3
:1017f000f9ff3a000900e000040032000901780016
:101800000a00780079ff0700188c44001807780058
:1018100050c2b3009e4f10003f013a000e07e8008f
:101820000e0c780010003700cfb097000100a00028
:101830000b003700cfb097000110a0000800370060
:10184000cfb097000120a00005003700cfb097006f
:101850000130a00002003700cfb097000140a00087
:10186000c1b79f00000ce800180078009040780095
:10187000b2c2b30082cf5000f1ff320007003c003b
:1018800002c2b30082cf5000f0ff320032c2b30078
:1018900082cf500007003a00efff3700d2c2b300fa
:1018a00082cf5000e0ff320002c3b30082cf50006d
:1018b000e0ff3200a2c2b30082cf50000d003a0018
:1018c000000ce8001c80e900000e78001000780091
:1018d000e0b79f000000e0000f003d00cfb0970090
:1018e0000100a200c1b79f000000ea00e0b79f001e
:1018f0000900370039010700e0b79f0001003700f9
:10190000000ce800180078009000fb000103b10013
:10191000e98f5000faff36004fb097000008a3008f
:10192000020032000010a100c0b79f00180078002c
:10193000e1c2b30090cf100016003a008000eb0027
:10194000d1b79f000000e800000c7800a1c2b300ee
:1019500090cf100006003a00000ce8001c80e9005f
:10196000000e780010007800d0b79f000900370003
:101970001a010700d0b79f0001003700000ce800f3
:10198000180078009000fb000103b100e98f5000bf
:10199000faff36000800780064ff070080467800f0
:1019a000180078001000fb00b50107009106200028
:1019b000810f50003800320012003c004106200028
:1019c000810f5000340032000a003c001106200054
:1019d000810f50002000320031062000810f50009e
:1019e000a000320051022000810f5000bc003a00dc
:1019f000b400370071062000810f5000b8003c0091
:101a00008800370001072000810f50005c00320081
:101a100007003c00e1062000810f50007a003200f0
:101a2000f1062000810f5000ad003a003900370068
:101a300051072000810f500027003200810720004d
:101a4000810f50004200320031072000810f50000a
:101a5000a3003a008f0037008d80fb000c01780056
:101a600000fe2f000f004000b80107000000e0005a
:101a7000a800320018007800000ce80090417800bf
:101a800002fe2f000f014100f88057000a00780085
:101a900024ff07000e0037008d80fb008c017800ca
:101aa0001200200000fe2f000f00400043fe070040
:101ab0000000e00097003200180ce80002fe2f0042
:101ac0000f014100f88057000a0078005efc070013
:101ad00080844400900037008d80fb008c017800ea
:101ae0000001eb0000fe2f000f00400033fe070056
:101af0000000e00087003200180ce80002fe2f0012
:101b00000f014100f88057000a00780059fd0700d6
:101b1000efff37008d80fb008c0178000001eb00a7
:101b200000fe2f000f00400024fe07000000e00030
:101b300078003200180ce80002fe2f000f0141006f
:101b4000f88057000a00780098fc0700e0ff370093
:101b50008d80fb008c0178000001eb0000fe2f005f
:101b60000f00400015fe07000000e0006900320091
:101b700018007800000ce800904178001c00370045
:101b80008c0178000001eb00010f200000fe2f0007
:101b90000f00400009fe07000000e0005d00320079
:101ba000180ce8000fb097009fb097002fb1970076
:101bb000bfb19700e00f5000e08f5800e00f5900d0
:101bc000e08f590009003a00cfb597006fb4970035
:101bd000c0812000120107000b0278008801780004
:101be00000017800c18120004700370083c7b3009f
:101bf00002fe2f000f014100f88057000a00780014
:101c000045fd0700b2ff37000b8144008d80fb00cb
:101c10008c01780000fe2f000f0040003bfe070003
:101c20003c0037008d80fb000c01780000fe2f0087
:101c30000f004000450107000000e00035003200c1
:101c400018007800000ce8009041780002fe2f0098
:101c50000f014100f88057000a007800b1fe07002c
:101c60009bff370000c8b30080cf560029003a0020
:101c7000180ce8001c80e900000e78001040780085
:101c8000e0df9f0013002000e2fd2f000f01410064
:101c90000800370000c8b30080cf56001d003a008e
:101ca000180ce8001c80e900000e78008001eb00b1
:101cb00010017800f88057000a00780070fc0700d7
:101cc00083ff370000c8b30080cf560011003a00f0
:101cd000180ce8004fb29700efb1970008003700ea
:101ce0000e0c78000000eb00c0b79f00e0b79f002b
:101cf0000080eb00d0b79f000002eb008401780069
:101d000012002000218220000a0078004afe07000d
:101d10006fff3700180ce800090078004f077800c3
:101d20004f06be004f05be004f04be006f01b1005c
:101d3000000006008200fa00889fbe008a1f78001b
:101d40000005780082047800c13f9f000004eb008a
:101d5000100037000902780088017800a2f72f00f0
:101d60000f01410081f72f008f8040000a007800aa
:101d700084fe070008004000880f500004003d006a
:101d8000b0042000d04188000084eb00040037003c
:101d9000000478004f3897001004e000edff3a008f
:101da000080078004f0578004f04be000080fa005c
:101db00000000600800078001000200002022000d1
:101dc000828f500004003200e9805000e48f500000
:101dd000010036000000eb0000000600889fbe00f6
:101de0008a1f7800000578000a047800984478007b
:101df0000805e8000900fb00eeff07000000e00016
:101e0000f9ff3a00b0c2b30080cf540005003200a1
:101e1000d0c2b3008000eb0080cf540005003a0030
:101e2000020037008000eb000100370011002000a5
:101e30000804e8000000eb00030037006a02b90064
:101e4000020052000003b0003801fb0003fd2f0028
:101e500082814100e98f5100f8ff36000100e00067
:101e600001003a000000ea004f0578004f04be0070
:101e7000000006008001780002003700b1597800a8
:101e80000201e9000200e000fcff3a000000060049
:101e9000889fbe008a9fbe00800478000200e00098
:101ea0005b00320001407800814c78008281440060
:101eb000f1f99f00e20f510055003600914498005f
:101ec000a1449800e1f99f00d1f99f00e60f51006d
:101ed0004f003600b1449800c1f99f00e80f51004f
:101ee0004b0036000905ea00630565000a844400da
:101ef0000a055100c1ff2f00010565000080fb00ad
:101f00008000eb001210200013102000db000700ff
:101f1000008cbe000a01440060b99f0071b99f00a7
:101f2000e80f55003a00360020049800310498006c
:101f3000400498005104980020b99f0031b99f00d7
:101f400040b99f0051b99f00f80f5500300036008e
:101f50006004980071049800000c9800110c98001f
:101f6000200c9800310c9800400c9800510c9800ff
:101f700020b19f0031b19f0040b19f0051b19f003f
:101f800060b19f0071b19f0000b99f0011b99f001f
:101f90006401640078014100020444000205550018
:101fa0006011b8000203be000002be000403be00c0
:101fb0006022b8000000720081807200020173008c
:101fc0008381730010003700009cbe000294be00a5
:101fd000400498005104980062049800730498002b
:101fe000000c9800110c9800220c9800330c9800fb
:101ff000400c9800510c9800620c9800730c9800eb
:102000000a02b1000802b000ff0f5500eeff3e00cb
:10201000090078004f05be004f04be000000060016
:1020200080007800040037003104e00002003a002c
:102030000000510000000600010178000108a30023
:10204000f9ff3a008101780031017800f4ef2f00a8
:10205000020242000281ea00020162000408280034
:1020600004016100f7ff320083007800010178006d
:102070003104e000fdff3a000000510000000600be
:10208000f1fb2f0080804000f98f500001003e00de
:102090000050a00000000600f9ff3700f1f92f0002
:1020a00080804000f98f500001003e00f005b20032
:1020b00000000600f9ff3700f28747008e1f780006
:1020c00002027800030178000000e0000200320004
:1020d0000007780001003700728757008002eb008c
:1020e0000100e000010032008102e9007080570029
:1020f000060009000018eb000080eb0080bf9f0085
:102100002310200093bf9f00aebf9f00b1bf9f0070
:10211000c5bf9f000100e00003003d00b1042000a6
:10212000d141880006003700004feb00eebf9f0052
:10213000debf9f00840078007080570022000700f7
:102140004f0778002f01b10000000600881f7800bb
:102150000004780000082000808f50001700350030
:1021600010082000808f50000b0034003008200041
:10217000808f500011003a00920078006880500073
:10218000000978003002be002003be00049cbe009f
:102190000694be0007003700920278006480520067
:1021a000000978001000be0015000700009cbe006a
:1021b0000294be0010002000010037000000eb0078
:1021c0004f047800000006000200fa00881f780023
:1021d00000047800e2bf9f00648157000800780087
:1021e000d4fe0700980090000148a30001003200cf
:1021f0000080eb004f0478000080fa000000060029
:1022000081037800f7f807000001be006000b80005
:102210000478a30013003a006220e10015003e009c
:102220000d0039008301d1000281d3008180d300e9
:102230008301d1000281d3008180d3008301d100ca
:102240000281d3008180d3000538b000c42add00ac
:10225000f300b2008381720007f0a70003f0a00032
:102260000000060083ff2700020020006110b90073
:10227000f9ff370003ff2700f7ff3700020ab90014
:10228000001bb9000200b800810042008100430039
:1022900000000600889fbe008a9fbe0030044200f6
:1022a000b0844a0030054b0090854b006000b100bf
:1022b0000898be000a90be000440e10005c8e10095
:1022c00006d0e10007d8e1000200310068004000bc
:1022d0001008e8004f05be004f04be0000000600d5
:1022e000889fbe008a9fbe003004be002005be004d
:1022f0000418540005985c0006185d0007985d00fe
:10230000110020000440e10005c8e10006d0e10012
:1023100007d8e100010039008000eb0010881000b0
:102320004f05be004f04be00000006001200fa0078
:10233000889fbe008a9fbe008c9fbe00e0b79f00b2
:10234000f1b79f0082bf9f0093bf9f000605be00ac
:102350000404be000000eb00d0b79f00c0b79f0090
:10236000b0b79f00a0b79f0090b79f00000678000d
:102370005fb19700cfb09700820141003fb0970056
:102380000200e00004003d00370007007e80570097
:10239000c0ff070003003700330007007e805700ae
:1023a000cfff0700dfb697000d00e0000c003500fe
:1023b0006fb29700ffb297000fbb97009fbb9700cb
:1023c00010002000010020006011b800000272001f
:1023d0008182720002037300838373001b00070075
:1023e0000c06e80001042000810f5600e0ff3a00cf
:1023f0000d00e00004003d000802be000a03be001c
:102400007e805700a3ff07005fa897000000e00050
:1024100005003a001fb29700afb297003fb3970094
:10242000cfb39700090007006fb09700ffb0970087
:102430000fb997009fb997004f06be004f05be0029
:102440004f04be000080fa000000060001000700f3
:1024500000000600a4b79f00b5b79f00c6b79f0055
:10246000d7b79f00000006004f09de00828171008f
:10247000b3b79f004f01de00818040008280700072
:10248000a1b79f008fb097004f09de000000400009
:102490000200700090b79f007fa897004f01de00f8
:1024a000818040008280700081b79f000d0007008e
:1024b0004f3ade000000400004007000f0af9f00c3
:1024c000080007000402420085824a0006034b0010
:1024d00087834b00dfff07000802be000a03be002f
:1024e000000006002fb29700bfb297004fb39700cd
:1024f000dfb3970000000600881f78001800200056
:10250000881f780089ff07008f87e9004f04780053
:1025100000000600801feb0084ff07008f87e900a2
:1025200000000600889fbe008a9fbe00e00f50009a
:10253000e08f5800e00f5900e08f59000c003d007b
:102540006044b8006055b8000000540081805c0011
:1025500002015d0083815d00180020001500070066
:1025600008003d00180007000004eb0005003700dc
:102570000004eb000f00070002003d0012000700fe
:1025800018002000dcff07000800e0000600320011
:102590006022b8006033b8000000520081805a0009
:1025a00002015b0083815b004f05be004f04be004b
:1025b00000000600e00f5200e08f5a00e00f5b00c1
:1025c000e08f5b00000006006044b8006055b80072
:1025d0000402540085825c0006035d0087835d0071
:1025e00000000600889fbe008a9fbe008c1f7800f6
:1025f000e00f5000e08f5800e00f5900e08f5900c5
:102600000d003d006044b8006055b8000000540063
:1026100081805c0002015d0083815d001c00200060
:102620000820e10009a8e1000ab0e1000bb8e100d0
:102630000d003d00080037000006eb00e00f5200df
:10264000e08f5a00e00f5b00e08f5b0006003d006a
:102650006044b8006055b8000402540085825c00f4
:1026600006035d0087835d00aaff07000c00e00001
:10267000060032006022b8006033b800000052004b
:1026800081805a0002015b0083815b004f06780065
:0c2690004f05be004f04be000000060015
:020000040000fa
:10269c002564000000430000686100007220000007
:1026ac0052650000637600003a20000025640000ab
:1026bc0000430000686100007220000052650000b9
:1026cc00637600003a0000000000000000000000eb
:0426dc0000000000fa
:020000040000fa
:1026e0000000fa007100200020002000b100070067
:1026f0000080fa00000006000c00fa004007980075
:10270000510798005e009000cf80de00b2f707000e
:1027100062662600634e2400d7f707008df7070096
:10272000200798003107980010002000100798003b
:102730002e019000be019000f0ff2f00010020004c
:10274000800f5100818f590005003c0010002000cf
:10275000000f78000000eb001007980023003700fe
:102760002e019000be019000f0ff2f0071002000ac
:10277000800f5100818f590005003c00800020002f
:10278000000f780010002000100798001700370095
:102790002e019000be019000f0ff2f00f1032000f9
:1027a000800f5100818f590005003c00000420007b
:1027b000000f780020002000100798000b00370061
:1027c0002e019000be019000f0ff2f00f10f2000bd
:1027d000800f5100818f590004003c000010200040
:1027e000000f780030002000100798004e00900085
:1027f000e10f500017003a0005e1a9000021ef00a9
:102800001e00900000407800634060000080fb00e4
:10281000630060004400dd0022088000f1fc2f000e
:102820008100610001007000200888001e0078000f
:10283000cf80de000001be002e009000be009000a0
:1028400035f70700000078001008880005e1a800af
:10285000330037004e009000e20f500017003a009e
:1028600011e1a9000621ef001e0090000040780051
:10287000634060000080fb00630060004400dd00f6
:1028800082088000f1fc2f008100610001007000cf
:10289000800888001e007800cf80de000001be00a6
:1028a0002e009000be0090001bf70700000078008b
:1028b0006008880011e1a800190037004e00900060
:1028c000e30f500016003a0013e1a9000a21ef00bf
:1028d0001e00900000407800634060000080fb0014
:1028e000630060004400dd0092088000f1fc2f00ce
:1028f0008100610001007000900888001e007800cf
:10290000cf80de000001be002e009000be009000cf
:1029100001f70700000078007008880013e1a800a4
:102920000080fa00000006000200fa00000f7800a4
:102930001e007800e10f500007003a000000000080
:1029400020048000680060000000e000fcff32000e
:102950008460a900150037001e007800e20f5000c7
:1029600008003a000000000021048000000420005c
:10297000008060000000e000fbff320084c0a9007e
:102980000a0037001e007800e30f500007003a00ed
:10299000000000002104800000082000008060008a
:1029a0000000e000fbff320084e0a9000080fa0094
:1029b000000006000400fa00000f780011079800dc
:1029c0009e0090001e0078004bff07001e0078005c
:1029d000d5ff07000080fa00000006000000fa00a2
:1029e00022a2a8002342a900101180003000b300e9
:1029f000101188001111800030fe2f00008060004f
:102a00008001b3001011880021e2a8000080fa00c4
:102a1000000006000200fa00000f78001e00780097
:102a2000ef0f500004003c00010820001e80400011
:102a3000201188000b0037009e007800f00028006d
:102a4000008060000000e00004003d000000e9009c
:102a500001ff2f00008070000000e800000cb000b3
:102a6000201188000080fa00000006000400fa002f
:102a7000000f7800214798001e007800e5ff07004e
:102a80000000000000118000620060000000e00013
:102a9000fcff3a002e4090000000fb00201188004f
:102aa0000080fa00000006000a00fa00889fbe00bd
:102ab00030079800410798000f0478000f00780055
:102ac000800478004e0090008000e9001107980013
:102ad0000000e8000000e8000000d1008000400095
:102ae0000f007800818747000000e8000000d10057
:102af00000004000200798000000eb00000f780065
:102b00000b0037002e0090001e00400001c2b300f1
:102b1000014878002e0090001e0040001040780010
:102b2000804078001e007800d0ff07001e0fe800ec
:102b30004e0090009e007800808f5000f1ff35001d
:102b400089077800880778004f04be000080fa00eb
:102b5000000006000000fa00b0002000f01088001d
:102b600017e2a8001942a8008f00a8000080fa0010
:102b7000000006000400fa00100798000000eb00b7
:102b8000000f7800070037001e0078009e009000bc
:102b900000804000104078000000fb00d01088004a
:102ba0001e0fe8001e0078009e009000008040008c
:102bb000104078000004e000f3ff3a000080fa00c3
:102bc000000006000400fa00000f7800214798007a
:102bd0001e007800000890009e0078002e419000b2
:102be000827078001e007800000890008000e800e5
:102bf0001e007800010898001e0078002008900050
:102c00008000e8001e007800210898001e0078006f
:102c100000089000f00f500003003a001e007800fa
:102c20008000eb00010898000080fa000000060018
:102c30000400fa00000f7800110798001e007800c9
:102c4000800890001e00780010089000808f5000cf
:102c500002003a000000eb00130037001e0078006d
:102c6000100890009e007800e14078001e0090005f
:102c7000014878001e007800100890008000e800ed
:102c80001e007800110898001e00780010089000bf
:102c9000f00f500003003a001e0078008000eb00a7
:102ca00011089800100020000080fa0000000600c3
:102cb0001800fa0049ff0700a6ff0700813e200028
:102cc000100020003bff0700a10020002000200092
:102cd00089fe07001028ef001228ef001428ef00eb
:102ce000914080000080200000804000104078006b
:102cf00060479800e7004700f23529000a00090004
:102d0000b2587800f2004700040009008058eb0038
:102d10000000eb00000f7800070037006700470055
:102d20001e004000904078001e01780070004100b5
:102d30004eff07001e0fe800670047001e0040001e
:102d4000104078000004e000f4ff3a000000eb00bf
:102d500030ff07008c00a8008e00a800c602a90062
:102d6000c622a9005efe07008f00a900660047008a
:102d70008000780000802000adff07002007980049
:102d80008f00a8002e009000e10f500039003a009b
:102d9000d04080001fff0700ee409000d040800030
:102da00032ff0700d04080000000e800d0408800db
:102db000d1408000f0002800008060000000e000aa
:102dc00004003d000000e90001ff2f0000807000ba
:102dd0000000e800d04088006e409000ed4f5000a9
:102de000060032006e409000ea4f500003003200af
:102df000d04080000000e00004003a000101200003
:102e00000000eb0028ff07001a28ef00a140800017
:102e100067004700811f780011352900811f780065
:102e20007cf70700e48757000000eb0010079800cc
:102e30000a003700e70047001e00900000804000b5
:102e4000904078001e0090007000400007ff0700cf
:102e50001e0090000000e80010079800e7004700ff
:102e60001e00900000804000104078000004e00048
:102e7000f0ff3a00d0408000e6fe0700200020006e
:082e8000a9fe0700b7ff3700af
:020000040000fa
:102e8800000800001c000000000000001c080000f2
:102e98001e00000002000000286e69006c29000076
:102ea80025006800076c09004c836a009074a00034
:102eb8007ac000008068880000846c00820081006d
:102ec8003a080000020000000000000000000000b6
:020000040000fa
:0200000401f009
:04000000f4bf000049
:020000040000fa
:0200000401f009
:04000400ff7f00007a
:020000040000fa
:0200000401f009
:04000800ffff0000f6
:020000040000fa
:0200000401f009
:04001400ffffff00eb
:020000040000fa
:0200000401f009
:04001800ffff0000e6
:00000001FF
