:020000040000fa
:080000000001040000000000f3
:020000040000fa
:04000800660200008c
:020000040000fa
:04000c006602000088
:020000040000fa
:040010006602000084
:020000040000fa
:040014006602000080
:020000040000fa
:04001800660200007c
:020000040000fa
:04001c006602000078
:020000040000fa
:040020006602000074
:020000040000fa
:040024006602000070
:020000040000fa
:040028000c020000c6
:020000040000fa
:04002c006602000068
:020000040000fa
:040030006602000064
:020000040000fa
:040034006602000060
:020000040000fa
:04003800660200005c
:020000040000fa
:04003c006602000058
:020000040000fa
:040040006602000054
:020000040000fa
:040044003a0200007c
:020000040000fa
:04004800660200004c
:020000040000fa
:04004c006602000048
:020000040000fa
:040050006602000044
:020000040000fa
:040054006602000040
:020000040000fa
:04005800660200003c
:020000040000fa
:04005c006602000038
:020000040000fa
:040060006602000034
:020000040000fa
:040064006602000030
:020000040000fa
:04006800660200002c
:020000040000fa
:04006c006602000028
:020000040000fa
:040070006602000024
:020000040000fa
:040074006602000020
:020000040000fa
:04007800660200001c
:020000040000fa
:04007c006602000018
:020000040000fa
:040080006602000014
:020000040000fa
:040084006602000010
:020000040000fa
:04008800c8010000ab
:020000040000fa
:04008c006602000008
:020000040000fa
:040090006602000004
:020000040000fa
:040094006602000000
:020000040000fa
:0400980066020000fc
:020000040000fa
:04009c0066020000f8
:020000040000fa
:0400a00066020000f4
:020000040000fa
:0400a40066020000f0
:020000040000fa
:0400a80066020000ec
:020000040000fa
:0400ac0066020000e8
:020000040000fa
:0400b00066020000e4
:020000040000fa
:0400b40066020000e0
:020000040000fa
:0400b80066020000dc
:020000040000fa
:0400bc0066020000d8
:020000040000fa
:0400c00066020000d4
:020000040000fa
:0400c40066020000d0
:020000040000fa
:0400c80066020000cc
:020000040000fa
:0400cc0066020000c8
:020000040000fa
:0400d00066020000c4
:020000040000fa
:0400d40066020000c0
:020000040000fa
:0400d80066020000bc
:020000040000fa
:04010800660200008b
:020000040000fa
:04010c006602000087
:020000040000fa
:040110006602000083
:020000040000fa
:04011400660200007f
:020000040000fa
:04011800660200007b
:020000040000fa
:04011c006602000077
:020000040000fa
:040120006602000073
:020000040000fa
:04012400660200006f
:020000040000fa
:040128000c020000c5
:020000040000fa
:04012c006602000067
:020000040000fa
:040130006602000063
:020000040000fa
:04013400660200005f
:020000040000fa
:04013800660200005b
:020000040000fa
:04013c006602000057
:020000040000fa
:040140006602000053
:020000040000fa
:040144003a0200007b
:020000040000fa
:04014800660200004b
:020000040000fa
:04014c006602000047
:020000040000fa
:040150006602000043
:020000040000fa
:04015400660200003f
:020000040000fa
:04015800660200003b
:020000040000fa
:04015c006602000037
:020000040000fa
:040160006602000033
:020000040000fa
:04016400660200002f
:020000040000fa
:04016800660200002b
:020000040000fa
:04016c006602000027
:020000040000fa
:040170006602000023
:020000040000fa
:04017400660200001f
:020000040000fa
:04017800660200001b
:020000040000fa
:04017c006602000017
:020000040000fa
:040180006602000013
:020000040000fa
:04018400660200000f
:020000040000fa
:04018800c8010000aa
:020000040000fa
:04018c006602000007
:020000040000fa
:040190006602000003
:020000040000fa
:0401940066020000ff
:020000040000fa
:0401980066020000fb
:020000040000fa
:04019c0066020000f7
:020000040000fa
:0401a00066020000f3
:020000040000fa
:0401a40066020000ef
:020000040000fa
:0401a80066020000eb
:020000040000fa
:0401ac0066020000e7
:020000040000fa
:0401b00066020000e3
:020000040000fa
:0401b40066020000df
:020000040000fa
:0401b80066020000db
:020000040000fa
:0401bc0066020000d7
:020000040000fa
:0401c00066020000d3
:020000040000fa
:0401c40066020000cf
:020000040000fa
:0401c80066020000cb
:020000040000fa
:0401cc0066020000c7
:020000040000fa
:0401d00066020000c3
:020000040000fa
:0401d40066020000bf
:020000040000fa
:0401d80066020000bb
:020000040000fa
:10020000af8120000eff20000e01880000000000da
:10021000000020000000e000020032000001200089
:100220002002880014000700aa0007000000e00078
:1002300003003a0020a62000010020000200370041
:100240000000200001002000810f7000010032003a
:1002500014000700000020000000e000020032004f
:100260000000020000000000a606020000000000de
:100270000040da000000fe004440a9000000200019
:100280000000e0000300320000002000a001880010
:100290004440a800000006008a1f78008b1f7800e9
:1002a0000000060091018800800478000000eb0047
:1002b0001a003700e284440032a0b4009905ba0065
:1002c000e284440032a0b4009906ba00e2844400fb
:1002d00032a0b4000006eb00476fde00fd07b2005d
:1002e000636ce10003003a00ebff07000000eb0045
:1002f0000a003700606ce10004003a00005deb008a
:100300008b05e900fdff3e00040037006168e10055
:10031000010032000086eb000b00070019c7ba008d
:100320001905ba000e04e00003003a000a00e000dc
:10033000e0ff3a0000000600fe07b2009e018800c0
:100340008a047800f5ff3700395dba008b05e900b3
:100350000c003200295dba008b05e900080032006c
:100360000c00e00003003a00e284440032a0b40034
:10037000f5ff370019ddba008b05e900faff3a00f6
:100380008904e800e184440032a0b40000000600c3
:10039000809fbe003400f80000002000a00188000b
:1003a0000200fa008700a900e0108000004f7800ea
:1003b000a0408000ef0f500013003c0090408000f0
:1003c00001802000810040009e4878000000e80085
:1003d0009040880091408000f0002800008060007c
:1003e0000000e00004003d000000e90001ff2f00d4
:1003f000008070000000e80090408800a04080006d
:100400000000e800a04088000080fa003400f900f5
:100410004f00be00004006003600f800809fbe007e
:10042000829fbe00849fbe00869fbe003400f800fd
:1004300000002000a00188000000fa008400a9004c
:100440008c00a900e101200030002000cd0207004f
:100450008ce0a8000080fa003400f9004f03be00d1
:100460004f02be004f01be004f00be003600f90033
:1004700000400600809fbe003400f800000020000d
:10048000a00188000000fa0084e0a9008400a9000f
:1004900013e1a9000a21ef008ce0a9008c00a8005c
:1004a000d116800000102000008060000000e000f5
:1004b0000200320010002000b04088000080fa00e6
:1004c0003400f9004f00be00004006000040da0092
:1004d0000000fe00000005000001be002200070031
:1004e0000470a70003f0a1006509b10016003200f6
:1004f0000d0035006828e10006003500f0ff2f00f0
:10050000f1ff27000300e00013003b00010028007a
:100510000000050000004000818048008502e900dd
:10052000fcff3a0008003700f88f420002003c0050
:100530008000eb00000005008100d1000080d300a6
:100540008502e800fcff3a000300e00002003b00e7
:1005500060001000e0801800000006004f89de00f7
:100560008201780094013700c70ade00f107b2006b
:10057000f50fb20008003200e1cf42000200320065
:100580000170a00024000500810f700001003200fe
:100590000408050044000500810f700002003a00c5
:1005a000140005008502e9000000400081c04800f9
:1005b000fcff3b000170a00024000500889fbe00e6
:1005c0008a9fbe008c9fbe001b0020000202be005e
:1005d0000586680006002800060666004709de005a
:1005e000f20fb200820032000243e80080003200c5
:1005f000c729de00f30fb2007d0032000343e8009c
:100600007b003200f107b2000170a000f507b200d4
:100610000570a000c708dd004903de008680700079
:100620004700dd00c72add004923de008682720014
:100630004722dd0003055100040350008583580064
:100640000300310000004000818048000a05e900f5
:100650008c1f78008a9fbe000400500085805800df
:100660000402420085824a00000040008180480068
:100670000005eb000004be006033b8000406be00b5
:100680000d48e10056003100110009004dccd800a2
:100690000c01b8000d02b8008481410060824a005c
:1006a0008283530003045c0084845c0060055d0069
:1006b0000a00e00025003a00800578000d40e100c6
:1006c0004900310088007800070078001100090017
:1006d0004d88d8000c01b8000d02b800848141009b
:1006e00060824a006003110083835b0004045c00a5
:1006f000e0845c000900e00021003a004f01be00e8
:100700000300e0002b003200e301600007067300e5
:100710008c81710001003200640070004200de0034
:100720004e5edd000c007000c258de0001e0a0004b
:100730009b000700cf017800818071004f06be004a
:100740004f05be004f04be00000006008c8343002e
:100750000d044c00e0844c0060054d000000e900f1
:100760000a00e000d4ff32008c8343000d044c00eb
:10077000e0844c0060054d000000e900ceff37002a
:100780000c0343008d834b0060044c00e0844c005c
:100790000000e9000900e000d8ff32000c0343002c
:1007a0008d834b0060044c00e0844c000000e900a5
:1007b000d2ff37004200de004e5edd000c0070000c
:1007c000c258de0001e0a000cf0178000300e00085
:1007d000daff320060001000e0801800d7ff370019
:1007e000f0ff2f00aaff3700f0ff2f00b9ff3700fe
:1007f0000404be0050000700870678000004fd00d6
:100800008104fd004c000700078366000678a30002
:10081000030032000960a7000800be002c0037006a
:100820000d78a300020032000800be002800370047
:100830000778a30026003a0001f0a10009f0a1000a
:100840000668a30003003200f1ff2700f0ff2f002d
:10085000baff37000d68a300030032000800be0095
:100860008c807000b5ff37000768a30007003a00ce
:100870000648a30003003200f1ff2700f0ff2f001d
:10088000aeff37000d48a300030032006000b8003f
:100890008c807000a9ff37000748a30004003200d5
:1008a00001f82700000020008c807000a3ff3700b3
:1008b0008e0007000004fd008104fd0002057800a1
:1008c0008a0007000802be008a01780059ff37003d
:1008d0000160a00012022000c240880097ff37008c
:1008e0000100e000120032000500e00010003200bc
:1008f000889fbe008a9fbe008c9fbe000006eb0052
:1009000001f8a3000300320060001000e08018002e
:100910000cf0a00005f8a3000300320060021200f2
:10092000e0821a000cf0a2008005eb0041ff3700c6
:100930006000b800020005002700200001f0a700b9
:1009400017002000470bde00f60fb2000400320053
:100950000643e8000a0032004702b3000000060028
:1009600001037800f607b2000603700002003a00a7
:100970000703b300000006008702b3000000060072
:1009800001037800f607b20006037000020032008f
:100990000770a000000006000760a000000006002d
:1009a00081017000270032008002eb0001f8a300f3
:1009b0000300320060001000e080180015002000e5
:1009c000f40720000202420020003400f703200058
:1009d0008703600006042000000363000208200073
:1009e000000161004700de00c909dd0000807100e0
:1009f000c708de000600e00008003200870371002f
:100a0000060032001000b0000180b0000188a30091
:100a100002003200c108de000402e800f107b20063
:100a2000f30f20000320e10003003d004722dd001a
:100a3000810072002900370001f827000000eb0058
:100a4000260037006000b8000000060068021200af
:100a50007f20e100020034006000b8001f00370072
:100a60006011b8007020e1000400350080017800ba
:100a7000010078008000eb00700252000400e000ea
:100a800009003400f00312000719dd008419de00ac
:100a90000703dd00868171000400de00070bdd0026
:100aa000060070008408de00f7ff270083836300e0
:100ab000870371000600280003036300070032006b
:100ac0000700e00003003a0061016000028173004a
:100ad000020032001000b0000180b0000500a60046
:100ae0000000060001f0a000000006004f0ade0032
:100af0004709de00f107b200f20fb2000b0032002e
:100b0000f207b1000170a000c708dd00c901de00d6
:100b1000838070004700dd000400a600000006008e
:100b200060001000e080180000000600810f7000d7
:100b300001003a00000006008182cf000500e000bd
:100b400010003e008082cf00ee8242007028e1005b
:100b50000400390007003e00800078000000eb0030
:100b60000e003700708312008600de000500dd00f5
:100b70000a003700708352008600dd000000eb00a1
:100b800006003700e28252008508dd007083120003
:100b90000603de00868070000500dd007507b000ea
:100ba0000501ea000400a600000006006000100035
:100bb000e080180000000600881f78000304780019
:100bc0000300e00007003d0060001000e080180016
:100bd00060011900e081190002003b0001f02d00c6
:100be000030037000400070008f0a70001f0a00090
:100bf0004f04780000000600889fbe008a9fbe0058
:100c0000008270000402710004827100260032002c
:100c10000004be000200be006011b8006b09200095
:100c2000950220000182cf000a0039000541b10081
:100c30000082cf00070039000541b1000982cf00d2
:100c4000040039000541b1000882cf0001003900dd
:100c50000541b10005425200120032000a003b007b
:100c600082817100610164008100d1000080d300a5
:100c70008984d3000884d3008b05e8000442e8008f
:100c8000f7ff3a00070037000804440089844c004d
:100c900000004800818048008b05e9000442e9001b
:100ca000f9ff3a00030007004f05be004f04be00e5
:100cb0000000060081002000618055000b003d000f
:100cc0000b00200061fe2f000100e1001d00340038
:100cd00082817100610164008904d1000884d3001d
:100ce0000000e800faff3a00710020006100640093
:100cf000030070000200600009003200610444003b
:100d0000e0844c000988a500050032008b05e8004e
:100d10006808e10002003a008904d1000884d30089
:100d2000f20f20000258e10005003d00c75ddd0024
:100d3000f907b200898075000800780000000600fd
:0c0d40000bf827008b0078000000050075
:020000040000fa
:100d4c000600fa000000eb00000f78000000eb003a
:100d5c00100798001e00780060000700200020009b
:100d6c00c10007007100200010002000d700070010
:100d7c00b04080000000e000030032001628ef00b5
:100d8c001e007800480107003004800061006000fc
:100d9c000000e000450032008600a9000000eb00d6
:100dac00000f78000000eb0010079800dd00070032
:100dbc001e007800eb00070000c8b3002f010700ed
:100dcc003b00370080408000018020008100400003
:100ddc0011417800424798000000e80080408800ec
:100dec0081408000f0002800008060000000e000de
:100dfc0004003d000000e90001ff2f00008070009e
:100e0c000000e800804088008f00a900a04080000e
:100e1c000000e900a04088008f00a8004e40900020
:100e2c00ed4f5000030032004e409000ea4f50004e
:100e3c0005003a001822a9000000eb0010079800ea
:100e4c00b80007001a0037001e009000f00f500089
:100e5c0003003a000000eb0010079800b1000700f7
:100e6c00c0108000620060000000e0000100320051
:100e7c001822a9004e409000000107001e0fe80048
:100e8c001e0090000000e800100798009e007800fb
:100e9c00803e200000017800110009008200d8007b
:100eac008000fd00000f78000100370000000000fa
:100ebc00a04080000000e000c2ff3c001e00780053
:100ecc00a80007001e0090008040780000c8b30006
:100edc0000c04000e9000700a0ff37000200fa0044
:100eec00000f7800813e20001000200077000700e2
:100efc00b0002000f010880017e2a8001942a800ea
:100f0c00c1108000f0f32f00008060000060a00092
:100f1c00c01088008f00a80022a2a8002342a900bc
:100f2c0011118000c0ff2f00008060000000a000a5
:100f3c00101188001111800030fe2f00008060001d
:100f4c008001b3001011880021e2a8008c00a800d9
:100f5c00d902a8001e0078008200070000c8b30068
:100f6c00c6000700a100200020002000020007009e
:100f7c000080fa00000006000600fa001007980036
:100f8c00210798002e009000cf80de0070fd070036
:100f9c000001be0000002000a147240084fd0700d2
:100fac000001be0000002000116e240080fd07002f
:100fbc0046fd0700000f78001e009000e20f500065
:100fcc000f003200e30f500018003200e10f500008
:100fdc0022003a000021ef001e0078001008880063
:100fec0021088000f0fc2f00008060000050a00061
:100ffc00200888008460a90005e1a80018003700cb
:10100c000621ef001e00780060088800810880002f
:10101c00f0fc2f00008060000050a00080088800c9
:10102c0084c0a90011e1a8000d0037000a21ef00cf
:10103c001e0078007008880091088000f0fc2f00da
:10104c00008060000050a0009008880084e0a90097
:10105c0013e1a800000000000100370000000000b0
:10106c000080fa00000006000200fa00000f780071
:10107c001e007800e10f500003003200e20f500018
:10108c00080032000f003700000000002004800030
:10109c00680060000000e000fcff32008460a900e2
:1010ac00080037000000000021048000000420002c
:1010bc00008060000000e000fbff320084c0a9004b
:1010cc00000000000080fa00000006000400fa0096
:1010dc00000f7800110798009e0090001e00780009
:1010ec00a5ff07001e007800dfff07001e00780038
:1010fc00e10f500003003200e20f500004003200f8
:10110c000600370005e1a9000021ef0003003700bd
:10111c0011e1a9000621ef00000000000080fa0098
:10112c00000006000200fa0000c8b30053000700dc
:10113c000000eb00000f78000300370000c2b30082
:10114c004e0007001e0fe8001e007800ef0f500045
:10115c00faff340000c8b300480007000080fa0012
:10116c00000006001800fa00300f980066004700d7
:10117c0032842600132627000288be00640040003b
:10118c0002222500533626000288be00640040006f
:10119c0062a72300030220000288be006400400006
:1011ac006011b8000288be0000ccb3003300070009
:1011bc000000eb00000f78000500370066004700c8
:1011cc001e004000104078002c0007001e0fe800a5
:1011dc00660047001e004000104078000004e0004c
:1011ec00f6ff3a0066004700800078003e08900049
:1011fc00430007000000eb001007980008003700c0
:10120c00e60047001e00900000804000104078006f
:10121c001a0007001e0090000000e800100798005c
:10122c00e60047001e00900000804000104078004f
:10123c000004e000f2ff3a000000eb0020079800e9
:10124c000500370000c2b3000c0007002e00900010
:10125c000000e800200798002e009000e10f5000dd
:10126c0004003c00be08900030062000808f500027
:10127c00f4ff34000080fa00000006000200fa00bf
:10128c00004f780000000000001180006200600038
:10129c000000e000fcff3a001e00fb00201188005b
:1012ac000080fa00000006000800fa0030079800e1
:1012bc000e80e800800078003e00900010000700cf
:1012cc000000eb00000f7800060037000e80e800ed
:1012dc001e004000104078000000fb00d010880079
:1012ec001e0fe8000e80e8001e0040001040780041
:1012fc000004e000f5ff3a000080fa000000060050
:10130c000600fa00000f7800110798001e00780004
:10131c00e90f500010003c009e007800a000200057
:10132c0000017800110009008200d8008000fd0047
:10133c00004078000043b000804078001e00900010
:10134c00014878001e0090000000e8008040eb008f
:10135c000148780056003700300620009e007800c7
:10136c00808f500024003c001e017800706626001f
:10137c000090b900c288de004f90de0080805000e3
:10138c00706626000089b9004299de004f88de00a5
:10139c00000051006a01b900020078000080500082
:1013ac00004078000043b000804078001e009000a0
:1013bc00014878001e0090000000e800200798000b
:1013cc001e017800a10020008101780011000900a5
:1013dc000301d800814078000143b0002e0090003a
:1013ec00014878001e0090000080e8008040eb006f
:1013fc00014878002e0037001e017800b04721000c
:10140c000090b900c388de004f90de0000805000d1
:10141c00004078000043b000804078001e0090002f
:10142c00014878001e0090000002e8001e017800c0
:10143c00706626000090b900c288de004f90de0076
:10144c0080805000706626000089b9004299de0049
:10145c004f88de00000051006a01b90002007800dc
:10146c0000805000004078000043b000004a780033
:10147c001e0090000080e800200798001e017800f4
:10148c00a100200081017800110009000301d8009f
:10149c00814078000143b0002e0090000148780094
:1014ac001e009000630040008040eb000148780073
:0814bc000080fa0000000600a8
:020000040000fa
:1014c40000080000180000000000000018080000d8
:0c14d4000200000000000000000000000a
:020000040000fa
:0200000401f009
:04000000f4bf000049
:020000040000fa
:0200000401f009
:04000400ff7f00007a
:020000040000fa
:0200000401f009
:04000800ffff0000f6
:020000040000fa
:0200000401f009
:04001400ffffff00eb
:020000040000fa
:0200000401f009
:04001800ffff0000e6
:00000001FF
